{
  "_format": "hh-sol-artifact-1",
  "contractName": "NFT",
  "sourceName": "contracts/NFT.sol",
  "abi": [
    {
      "inputs": [
        {
          "internalType": "string",
          "name": "name_",
          "type": "string"
        },
        {
          "internalType": "string",
          "name": "symbol_",
          "type": "string"
        },
        {
          "internalType": "address",
          "name": "registryAddress",
          "type": "address"
        },
        {
          "internalType": "address",
          "name": "userRecordsAddress",
          "type": "address"
        }
      ],
      "stateMutability": "nonpayable",
      "type": "constructor"
    },
    {
      "anonymous": false,
      "inputs": [
        {
          "indexed": true,
          "internalType": "address",
          "name": "owner",
          "type": "address"
        },
        {
          "indexed": true,
          "internalType": "address",
          "name": "approved",
          "type": "address"
        },
        {
          "indexed": true,
          "internalType": "uint256",
          "name": "tokenId",
          "type": "uint256"
        }
      ],
      "name": "Approval",
      "type": "event"
    },
    {
      "anonymous": false,
      "inputs": [
        {
          "indexed": true,
          "internalType": "address",
          "name": "owner",
          "type": "address"
        },
        {
          "indexed": true,
          "internalType": "address",
          "name": "operator",
          "type": "address"
        },
        {
          "indexed": false,
          "internalType": "bool",
          "name": "approved",
          "type": "bool"
        }
      ],
      "name": "ApprovalForAll",
      "type": "event"
    },
    {
      "anonymous": false,
      "inputs": [
        {
          "indexed": true,
          "internalType": "address",
          "name": "previousOwner",
          "type": "address"
        },
        {
          "indexed": true,
          "internalType": "address",
          "name": "newOwner",
          "type": "address"
        }
      ],
      "name": "OwnershipTransferred",
      "type": "event"
    },
    {
      "anonymous": false,
      "inputs": [
        {
          "indexed": true,
          "internalType": "uint256",
          "name": "tokenId",
          "type": "uint256"
        },
        {
          "indexed": false,
          "internalType": "string",
          "name": "uri",
          "type": "string"
        }
      ],
      "name": "TokenURISet",
      "type": "event"
    },
    {
      "anonymous": false,
      "inputs": [
        {
          "indexed": true,
          "internalType": "address",
          "name": "from",
          "type": "address"
        },
        {
          "indexed": true,
          "internalType": "address",
          "name": "to",
          "type": "address"
        },
        {
          "indexed": true,
          "internalType": "uint256",
          "name": "tokenId",
          "type": "uint256"
        }
      ],
      "name": "Transfer",
      "type": "event"
    },
    {
      "inputs": [
        {
          "internalType": "address",
          "name": "to",
          "type": "address"
        },
        {
          "internalType": "uint256",
          "name": "tokenId",
          "type": "uint256"
        }
      ],
      "name": "approve",
      "outputs": [],
      "stateMutability": "nonpayable",
      "type": "function"
    },
    {
      "inputs": [
        {
          "internalType": "address",
          "name": "owner",
          "type": "address"
        }
      ],
      "name": "getAllTokensOfOwner",
      "outputs": [
        {
          "internalType": "uint256[]",
          "name": "",
          "type": "uint256[]"
        }
      ],
      "stateMutability": "view",
      "type": "function"
    },
    {
      "inputs": [
        {
          "internalType": "uint256",
          "name": "tokenId",
          "type": "uint256"
        }
      ],
      "name": "getApproved",
      "outputs": [
        {
          "internalType": "address",
          "name": "",
          "type": "address"
        }
      ],
      "stateMutability": "view",
      "type": "function"
    },
    {
      "inputs": [
        {
          "internalType": "address",
          "name": "to",
          "type": "address"
        },
        {
          "internalType": "uint256",
          "name": "tokenId",
          "type": "uint256"
        },
        {
          "internalType": "string",
          "name": "tokenURI_",
          "type": "string"
        }
      ],
      "name": "mintWithMetadata",
      "outputs": [],
      "stateMutability": "nonpayable",
      "type": "function"
    },
    {
      "inputs": [],
      "name": "name",
      "outputs": [
        {
          "internalType": "string",
          "name": "",
          "type": "string"
        }
      ],
      "stateMutability": "view",
      "type": "function"
    },
    {
      "inputs": [],
      "name": "owner",
      "outputs": [
        {
          "internalType": "address",
          "name": "",
          "type": "address"
        }
      ],
      "stateMutability": "view",
      "type": "function"
    },
    {
      "inputs": [
        {
          "internalType": "uint256",
          "name": "tokenId",
          "type": "uint256"
        }
      ],
      "name": "ownerOf",
      "outputs": [
        {
          "internalType": "address",
          "name": "",
          "type": "address"
        }
      ],
      "stateMutability": "view",
      "type": "function"
    },
    {
      "inputs": [],
      "name": "renounceOwnership",
      "outputs": [],
      "stateMutability": "nonpayable",
      "type": "function"
    },
    {
      "inputs": [
        {
          "internalType": "address",
          "name": "operator",
          "type": "address"
        },
        {
          "internalType": "bool",
          "name": "approved",
          "type": "bool"
        }
      ],
      "name": "setApprovalForAll",
      "outputs": [],
      "stateMutability": "nonpayable",
      "type": "function"
    },
    {
      "inputs": [],
      "name": "symbol",
      "outputs": [
        {
          "internalType": "string",
          "name": "",
          "type": "string"
        }
      ],
      "stateMutability": "view",
      "type": "function"
    },
    {
      "inputs": [
        {
          "internalType": "uint256",
          "name": "tokenId",
          "type": "uint256"
        }
      ],
      "name": "tokenURI",
      "outputs": [
        {
          "internalType": "string",
          "name": "",
          "type": "string"
        }
      ],
      "stateMutability": "view",
      "type": "function"
    },
    {
      "inputs": [
        {
          "internalType": "address",
          "name": "from",
          "type": "address"
        },
        {
          "internalType": "address",
          "name": "to",
          "type": "address"
        },
        {
          "internalType": "uint256",
          "name": "tokenId",
          "type": "uint256"
        }
      ],
      "name": "transferFrom",
      "outputs": [],
      "stateMutability": "nonpayable",
      "type": "function"
    },
    {
      "inputs": [
        {
          "internalType": "address",
          "name": "newOwner",
          "type": "address"
        }
      ],
      "name": "transferOwnership",
      "outputs": [],
      "stateMutability": "nonpayable",
      "type": "function"
    }
  ],
  "bytecode": "0x60806040523480156200001157600080fd5b50604051620018a4380380620018a48339810160408190526200003491620001c4565b6200003f3362000092565b60016200004d8582620002e2565b5060026200005c8482620002e2565b50600880546001600160a01b039384166001600160a01b0319918216179091556009805492909316911617905550620003ae9050565b600080546001600160a01b038381166001600160a01b0319831681178455604051919092169283917f8be0079c531659141344cd1fd0a4f28419497f9722a3daafe3b4186f6b6457e09190a35050565b634e487b7160e01b600052604160045260246000fd5b600082601f8301126200010a57600080fd5b81516001600160401b0380821115620001275762000127620000e2565b604051601f8301601f19908116603f01168101908282118183101715620001525762000152620000e2565b816040528381526020925086838588010111156200016f57600080fd5b600091505b8382101562000193578582018301518183018401529082019062000174565b600093810190920192909252949350505050565b80516001600160a01b0381168114620001bf57600080fd5b919050565b60008060008060808587031215620001db57600080fd5b84516001600160401b0380821115620001f357600080fd5b6200020188838901620000f8565b955060208701519150808211156200021857600080fd5b506200022787828801620000f8565b9350506200023860408601620001a7565b91506200024860608601620001a7565b905092959194509250565b600181811c908216806200026857607f821691505b6020821081036200028957634e487b7160e01b600052602260045260246000fd5b50919050565b601f821115620002dd57600081815260208120601f850160051c81016020861015620002b85750805b601f850160051c820191505b81811015620002d957828155600101620002c4565b5050505b505050565b81516001600160401b03811115620002fe57620002fe620000e2565b62000316816200030f845462000253565b846200028f565b602080601f8311600181146200034e5760008415620003355750858301515b600019600386901b1c1916600185901b178555620002d9565b600085815260208120601f198616915b828110156200037f578886015182559484019460019091019084016200035e565b50858210156200039e5787850151600019600388901b60f8161c191681555b5050505050600190811b01905550565b6114e680620003be6000396000f3fe608060405234801561001057600080fd5b50600436106100cf5760003560e01c8063715018a61161008c578063a22cb46511610066578063a22cb465146101b8578063c55e59e5146101cb578063c87b56dd146101eb578063f2fde38b146101fe57600080fd5b8063715018a6146101975780638da5cb5b1461019f57806395d89b41146101b057600080fd5b806306fdde03146100d4578063081812fc146100f2578063095ea7b31461013357806323b872dd146101485780632d63f7281461015b5780636352211e1461016e575b600080fd5b6100dc610211565b6040516100e99190610f9e565b60405180910390f35b61011b610100366004610fec565b6000908152600560205260409020546001600160a01b031690565b6040516001600160a01b0390911681526020016100e9565b610146610141366004611021565b6102a3565b005b61014661015636600461104b565b61038a565b6101466101693660046110ce565b610438565b61011b61017c366004610fec565b6000908152600360205260409020546001600160a01b031690565b6101466107ac565b6000546001600160a01b031661011b565b6100dc610821565b6101466101c636600461117d565b610830565b6101de6101d93660046111b9565b61089c565b6040516100e991906111db565b6100dc6101f9366004610fec565b610915565b61014661020c3660046111b9565b610a8f565b6060600180546102209061121f565b80601f016020809104026020016040519081016040528092919081815260200182805461024c9061121f565b80156102995780601f1061026e57610100808354040283529160200191610299565b820191906000526020600020905b81548152906001019060200180831161027c57829003601f168201915b5050505050905090565b6000818152600360205260409020546001600160a01b0316338114806102ec57506001600160a01b038116600090815260066020908152604080832033845290915290205460ff165b61032e5760405162461bcd60e51b815260206004820152600e60248201526d139bdd08185d5d1a1bdc9a5e995960921b60448201526064015b60405180910390fd5b60008281526005602052604080822080546001600160a01b0319166001600160a01b0387811691821790925591518593918516917f8c5be1e5ebec7d5bd14f71427d1e84f3dd0314c0f7b2291e5b200ac8c7c3b92591a4505050565b610395838383610b69565b6103e15760405162461bcd60e51b815260206004820152601b60248201527f496e76616c6964207472616e7366657220706172616d657465727300000000006044820152606401610325565b6103eb3382610b9f565b6104285760405162461bcd60e51b815260206004820152600e60248201526d139bdd08185d5d1a1bdc9a5e995960921b6044820152606401610325565b610433838383610c19565b505050565b610443838383610e6e565b61048f5760405162461bcd60e51b815260206004820152601760248201527f496e76616c6964206d696e7420706172616d65746572730000000000000000006044820152606401610325565b6000828152600360205260409020546001600160a01b0316156104eb5760405162461bcd60e51b8152602060048201526014602482015273546f6b656e20616c72656164792065786973747360601b6044820152606401610325565b336001600160a01b038416148061050c57506000546001600160a01b031633145b6105515760405162461bcd60e51b8152602060048201526016602482015275139bdd08185d5d1a1bdc9a5e9959081d1bc81b5a5b9d60521b6044820152606401610325565b6001600160a01b038316600090815260046020526040812080546001929061057a90849061126f565b9091555050600082815260036020908152604080832080546001600160a01b0319166001600160a01b038816179055600790915290206105ba82826112d0565b5060085460405163109ed96760e01b81523060048201526001600160a01b03858116602483015260448201859052600092169063109ed96790606401600060405180830381600087803b15801561061057600080fd5b505af1925050508015610621575060015b6106c3576001600160a01b038416600090815260046020526040812080546001929061064e908490611390565b9091555050600083815260036020908152604080832080546001600160a01b03191690556007909152812061068291610f50565b60405162461bcd60e51b815260206004820152601660248201527511985a5b1959081d1bc81c9959da5cdd195c8813919560521b6044820152606401610325565b506001827fda84ca2183491f179a603e877b2cb058e42195041c2b9c53d746427e519a34df836040516106f69190610f9e565b60405180910390a260405183906001600160a01b038616906000907fddf252ad1be2c89b69c2b068fc378daa952ba7f163c4a11628f55a4df523b3ef908290a4600954604051630a221a7b60e11b81526001600160a01b039091169063144434f69061077490879060009088908290819085906001906004016113a3565b600060405180830381600087803b15801561078e57600080fd5b505af11580156107a2573d6000803e3d6000fd5b5050505050505050565b336107bf6000546001600160a01b031690565b6001600160a01b0316146108155760405162461bcd60e51b815260206004820181905260248201527f4f776e61626c653a2063616c6c6572206973206e6f7420746865206f776e65726044820152606401610325565b61081f6000610e99565b565b6060600280546102209061121f565b3360008181526006602090815260408083206001600160a01b03871680855290835292819020805460ff191686151590811790915590519081529192917f17307eab39ab6107e8899845ad3d59bd9653f200f220920489ca2b5937696c31910160405180910390a35050565b6008546040516352de4ee560e01b81526001600160a01b03838116600483015260609216906352de4ee590602401600060405180830381865afa1580156108e7573d6000803e3d6000fd5b505050506040513d6000823e601f3d908101601f1916820160405261090f919081019061140a565b92915050565b6060816109575760405162461bcd60e51b815260206004820152601060248201526f125b9d985b1a59081d1bdad95b88125160821b6044820152606401610325565b6000828152600360205260409020546001600160a01b03166109b25760405162461bcd60e51b8152602060048201526014602482015273151bdad95b88191bd95cc81b9bdd08195e1a5cdd60621b6044820152606401610325565b600082815260076020526040812080546109cb9061121f565b80601f01602080910402602001604051908101604052809291908181526020018280546109f79061121f565b8015610a445780601f10610a1957610100808354040283529160200191610a44565b820191906000526020600020905b815481529060010190602001808311610a2757829003601f168201915b50505050509050610a558151151590565b61090f5760405162461bcd60e51b815260206004820152600b60248201526a155492481b9bdd081cd95d60aa1b6044820152606401610325565b33610aa26000546001600160a01b031690565b6001600160a01b031614610af85760405162461bcd60e51b815260206004820181905260248201527f4f776e61626c653a2063616c6c6572206973206e6f7420746865206f776e65726044820152606401610325565b6001600160a01b038116610b5d5760405162461bcd60e51b815260206004820152602660248201527f4f776e61626c653a206e6577206f776e657220697320746865207a65726f206160448201526564647265737360d01b6064820152608401610325565b610b6681610e99565b50565b60006001600160a01b03841615801590610b8b57506001600160a01b03831615155b8015610b975750600082115b949350505050565b6000818152600360205260408120546001600160a01b03908116908416811480610be257506000838152600560205260409020546001600160a01b038581169116145b80610b9757506001600160a01b0380821660009081526006602090815260408083209388168352929052205460ff16949350505050565b6000818152600360205260409020546001600160a01b03848116911614610c745760405162461bcd60e51b815260206004820152600f60248201526e2737ba103a37b5b2b71037bbb732b960891b6044820152606401610325565b6001600160a01b038216610cbc5760405162461bcd60e51b815260206004820152600f60248201526e496e76616c6964206164647265737360881b6044820152606401610325565b610cc7600082610ee9565b6001600160a01b0383166000908152600460205260408120805460019290610cf0908490611390565b90915550506001600160a01b0382166000908152600460205260408120805460019290610d1e90849061126f565b909155505060008181526003602052604080822080546001600160a01b0319166001600160a01b03868116919091179091556009549151630a221a7b60e11b815291169163144434f691610d82918791600591879184908a906001906004016113a3565b600060405180830381600087803b158015610d9c57600080fd5b505af1158015610db0573d6000803e3d6000fd5b5050505080826001600160a01b0316846001600160a01b03167fddf252ad1be2c89b69c2b068fc378daa952ba7f163c4a11628f55a4df523b3ef60405160405180910390a460085460405163b030667160e01b81523060048201526001600160a01b0385811660248301528481166044830152606482018490529091169063b030667190608401600060405180830381600087803b158015610e5157600080fd5b505af1158015610e65573d6000803e3d6000fd5b50505050505050565b60006001600160a01b03841615801590610e885750600083115b8015610b9757505051151592915050565b600080546001600160a01b038381166001600160a01b0319831681178455604051919092169283917f8be0079c531659141344cd1fd0a4f28419497f9722a3daafe3b4186f6b6457e09190a35050565b600081815260056020908152604080832080546001600160a01b0319166001600160a01b038781169182179092556003909352818420549151859492909116917f8c5be1e5ebec7d5bd14f71427d1e84f3dd0314c0f7b2291e5b200ac8c7c3b92591a45050565b508054610f5c9061121f565b6000825580601f10610f6c575050565b601f016020900490600052602060002090810190610b6691905b80821115610f9a5760008155600101610f86565b5090565b600060208083528351808285015260005b81811015610fcb57858101830151858201604001528201610faf565b506000604082860101526040601f19601f8301168501019250505092915050565b600060208284031215610ffe57600080fd5b5035919050565b80356001600160a01b038116811461101c57600080fd5b919050565b6000806040838503121561103457600080fd5b61103d83611005565b946020939093013593505050565b60008060006060848603121561106057600080fd5b61106984611005565b925061107760208501611005565b9150604084013590509250925092565b634e487b7160e01b600052604160045260246000fd5b604051601f8201601f1916810167ffffffffffffffff811182821017156110c6576110c6611087565b604052919050565b6000806000606084860312156110e357600080fd5b6110ec84611005565b92506020808501359250604085013567ffffffffffffffff8082111561111157600080fd5b818701915087601f83011261112557600080fd5b81358181111561113757611137611087565b611149601f8201601f1916850161109d565b9150808252888482850101111561115f57600080fd5b80848401858401376000848284010152508093505050509250925092565b6000806040838503121561119057600080fd5b61119983611005565b9150602083013580151581146111ae57600080fd5b809150509250929050565b6000602082840312156111cb57600080fd5b6111d482611005565b9392505050565b6020808252825182820181905260009190848201906040850190845b81811015611213578351835292840192918401916001016111f7565b50909695505050505050565b600181811c9082168061123357607f821691505b60208210810361125357634e487b7160e01b600052602260045260246000fd5b50919050565b634e487b7160e01b600052601160045260246000fd5b8082018082111561090f5761090f611259565b601f82111561043357600081815260208120601f850160051c810160208610156112a95750805b601f850160051c820191505b818110156112c8578281556001016112b5565b505050505050565b815167ffffffffffffffff8111156112ea576112ea611087565b6112fe816112f8845461121f565b84611282565b602080601f831160018114611333576000841561131b5750858301515b600019600386901b1c1916600185901b1785556112c8565b600085815260208120601f198616915b8281101561136257888601518255948401946001909101908401611343565b50858210156113805787850151600019600388901b60f8161c191681555b5050505050600190811b01905550565b8181038181111561090f5761090f611259565b6001600160a01b03888116825260e0820190600689106113d357634e487b7160e01b600052602160045260246000fd5b886020840152876040840152866060840152808616608084015280851660a08401525082151560c083015298975050505050505050565b6000602080838503121561141d57600080fd5b825167ffffffffffffffff8082111561143557600080fd5b818501915085601f83011261144957600080fd5b81518181111561145b5761145b611087565b8060051b915061146c84830161109d565b818152918301840191848101908884111561148657600080fd5b938501935b838510156114a45784518252938501939085019061148b565b9897505050505050505056fea26469706673582212206e3591a0515fabda09b71906ad65bf5c19e23c5fdff96a6c3f2dd982fb1a094964736f6c63430008130033",
  "linkReferences": {},
  "deployedLinkReferences": {}
}