{
  "_format": "hh-sol-artifact-1",
  "contractName": "UserRecords",
  "sourceName": "contracts/UserRecords.sol",
  "abi": [
    {
      "anonymous": false,
      "inputs": [
        {
          "indexed": true,
          "internalType": "address",
          "name": "previousOwner",
          "type": "address"
        },
        {
          "indexed": true,
          "internalType": "address",
          "name": "newOwner",
          "type": "address"
        }
      ],
      "name": "OwnershipTransferred",
      "type": "event"
    },
    {
      "anonymous": false,
      "inputs": [
        {
          "indexed": true,
          "internalType": "address",
          "name": "user",
          "type": "address"
        },
        {
          "indexed": true,
          "internalType": "enum UserRecords.TransactionType",
          "name": "transactionType",
          "type": "uint8"
        },
        {
          "indexed": false,
          "internalType": "uint256",
          "name": "tokenId",
          "type": "uint256"
        },
        {
          "indexed": false,
          "internalType": "uint256",
          "name": "value",
          "type": "uint256"
        },
        {
          "indexed": false,
          "internalType": "uint256",
          "name": "timestamp",
          "type": "uint256"
        }
      ],
      "name": "TransactionRecorded",
      "type": "event"
    },
    {
      "inputs": [],
      "name": "getAllTransactions",
      "outputs": [
        {
          "components": [
            {
              "internalType": "uint256",
              "name": "timestamp",
              "type": "uint256"
            },
            {
              "internalType": "enum UserRecords.TransactionType",
              "name": "transactionType",
              "type": "uint8"
            },
            {
              "internalType": "uint256",
              "name": "tokenId",
              "type": "uint256"
            },
            {
              "internalType": "uint256",
              "name": "value",
              "type": "uint256"
            },
            {
              "internalType": "address",
              "name": "from",
              "type": "address"
            },
            {
              "internalType": "address",
              "name": "to",
              "type": "address"
            },
            {
              "internalType": "bool",
              "name": "success",
              "type": "bool"
            }
          ],
          "internalType": "struct UserRecords.Transaction[]",
          "name": "",
          "type": "tuple[]"
        }
      ],
      "stateMutability": "view",
      "type": "function"
    },
    {
      "inputs": [
        {
          "internalType": "address",
          "name": "user",
          "type": "address"
        },
        {
          "internalType": "enum UserRecords.TransactionType",
          "name": "txType",
          "type": "uint8"
        }
      ],
      "name": "getTransactionCountByType",
      "outputs": [
        {
          "internalType": "uint256",
          "name": "",
          "type": "uint256"
        }
      ],
      "stateMutability": "view",
      "type": "function"
    },
    {
      "inputs": [
        {
          "internalType": "address",
          "name": "user",
          "type": "address"
        }
      ],
      "name": "getUserTransactionCount",
      "outputs": [
        {
          "internalType": "uint256",
          "name": "",
          "type": "uint256"
        }
      ],
      "stateMutability": "view",
      "type": "function"
    },
    {
      "inputs": [
        {
          "internalType": "address",
          "name": "user",
          "type": "address"
        }
      ],
      "name": "getUserTransactions",
      "outputs": [
        {
          "components": [
            {
              "internalType": "uint256",
              "name": "timestamp",
              "type": "uint256"
            },
            {
              "internalType": "enum UserRecords.TransactionType",
              "name": "transactionType",
              "type": "uint8"
            },
            {
              "internalType": "uint256",
              "name": "tokenId",
              "type": "uint256"
            },
            {
              "internalType": "uint256",
              "name": "value",
              "type": "uint256"
            },
            {
              "internalType": "address",
              "name": "from",
              "type": "address"
            },
            {
              "internalType": "address",
              "name": "to",
              "type": "address"
            },
            {
              "internalType": "bool",
              "name": "success",
              "type": "bool"
            }
          ],
          "internalType": "struct UserRecords.Transaction[]",
          "name": "",
          "type": "tuple[]"
        }
      ],
      "stateMutability": "view",
      "type": "function"
    },
    {
      "inputs": [],
      "name": "owner",
      "outputs": [
        {
          "internalType": "address",
          "name": "",
          "type": "address"
        }
      ],
      "stateMutability": "view",
      "type": "function"
    },
    {
      "inputs": [
        {
          "internalType": "address",
          "name": "user",
          "type": "address"
        },
        {
          "internalType": "enum UserRecords.TransactionType",
          "name": "transactionType",
          "type": "uint8"
        },
        {
          "internalType": "uint256",
          "name": "tokenId",
          "type": "uint256"
        },
        {
          "internalType": "uint256",
          "name": "value",
          "type": "uint256"
        },
        {
          "internalType": "address",
          "name": "from",
          "type": "address"
        },
        {
          "internalType": "address",
          "name": "to",
          "type": "address"
        },
        {
          "internalType": "bool",
          "name": "success",
          "type": "bool"
        }
      ],
      "name": "recordTransaction",
      "outputs": [],
      "stateMutability": "nonpayable",
      "type": "function"
    },
    {
      "inputs": [],
      "name": "renounceOwnership",
      "outputs": [],
      "stateMutability": "nonpayable",
      "type": "function"
    },
    {
      "inputs": [
        {
          "internalType": "address",
          "name": "newOwner",
          "type": "address"
        }
      ],
      "name": "transferOwnership",
      "outputs": [],
      "stateMutability": "nonpayable",
      "type": "function"
    }
  ],
  "bytecode": "0x608060405234801561001057600080fd5b5061001a3361001f565b61006f565b600080546001600160a01b038381166001600160a01b0319831681178455604051919092169283917f8be0079c531659141344cd1fd0a4f28419497f9722a3daafe3b4186f6b6457e09190a35050565b610a6b8061007e6000396000f3fe608060405234801561001057600080fd5b50600436106100885760003560e01c80638da5cb5b1161005b5780638da5cb5b146100e9578063d8f3384014610104578063ef9253991461012d578063f2fde38b1461014057600080fd5b8063144434f61461008d57806327506f53146100a2578063715018a6146100c057806379247180146100c8575b600080fd5b6100a061009b36600461084f565b610153565b005b6100aa6103d6565b6040516100b791906108e6565b60405180910390f35b6100a06104c5565b6100db6100d63660046109a3565b61053f565b6040519081526020016100b7565b6000546040516001600160a01b0390911681526020016100b7565b6100db6101123660046109d6565b6001600160a01b031660009081526001602052604090205490565b6100aa61013b3660046109d6565b6105f5565b6100a061014e3660046109d6565b6106fa565b60006040518060e00160405280428152602001886005811115610178576101786108d0565b8152602080820189905260408083018990526001600160a01b038089166060850152878116608085015286151560a090940193909352918b166000908152600180835292812080548085018255908252908290208451600690920201908155908301518183018054949550859492939192909160ff1990911690836005811115610204576102046108d0565b021790555060408201516002808301919091556060830151600383015560808301516004830180546001600160a01b039283166001600160a01b031990911617905560a08401516005938401805460c0909601511515600160a01b026001600160a81b0319909616919092161793909317909255815460018181018455600093909352835160069091027f405787fa12a823e0f2b7631cc41b3ba8828b3321ca811111fa75cd3aa3bb5ace810191825560208501517f405787fa12a823e0f2b7631cc41b3ba8828b3321ca811111fa75cd3aa3bb5acf9091018054869593949293919260ff1990911691908490811115610300576103006108d0565b0217905550604082015160028201556060820151600382015560808201516004820180546001600160a01b039283166001600160a01b031990911617905560a08301516005928301805460c0909501511515600160a01b026001600160a81b03199095169190921617929092179091558790811115610381576103816108d0565b6040805188815260208101889052428183015290516001600160a01b038b16917f6ed2c4a389b54618d07aad60b189124cb9b0fe70570601ff24925a9f80dedea1919081900360600190a35050505050505050565b60606002805480602002602001604051908101604052809291908181526020016000905b828210156104bc57838290600052602060002090600602016040518060e0016040529081600082015481526020016001820160009054906101000a900460ff16600581111561044b5761044b6108d0565b600581111561045c5761045c6108d0565b815260028201546020808301919091526003830154604083015260048301546001600160a01b0390811660608401526005909301549283166080830152600160a01b90920460ff16151560a09091015290825260019290920191016103fa565b50505050905090565b336104d86000546001600160a01b031690565b6001600160a01b0316146105335760405162461bcd60e51b815260206004820181905260248201527f4f776e61626c653a2063616c6c6572206973206e6f7420746865206f776e657260448201526064015b60405180910390fd5b61053d60006107d4565b565b600080805b6001600160a01b0385166000908152600160205260409020548110156105ed57836005811115610576576105766108d0565b6001600160a01b03861660009081526001602052604090208054839081106105a0576105a06109f8565b600091825260209091206001600690920201015460ff1660058111156105c8576105c86108d0565b036105db57816105d781610a0e565b9250505b806105e581610a0e565b915050610544565b509392505050565b6001600160a01b0381166000908152600160209081526040808320805482518185028101850190935280835260609492939192909184015b828210156106ef57838290600052602060002090600602016040518060e0016040529081600082015481526020016001820160009054906101000a900460ff16600581111561067e5761067e6108d0565b600581111561068f5761068f6108d0565b815260028201546020808301919091526003830154604083015260048301546001600160a01b0390811660608401526005909301549283166080830152600160a01b90920460ff16151560a090910152908252600192909201910161062d565b505050509050919050565b3361070d6000546001600160a01b031690565b6001600160a01b0316146107635760405162461bcd60e51b815260206004820181905260248201527f4f776e61626c653a2063616c6c6572206973206e6f7420746865206f776e6572604482015260640161052a565b6001600160a01b0381166107c85760405162461bcd60e51b815260206004820152602660248201527f4f776e61626c653a206e6577206f776e657220697320746865207a65726f206160448201526564647265737360d01b606482015260840161052a565b6107d1816107d4565b50565b600080546001600160a01b038381166001600160a01b0319831681178455604051919092169283917f8be0079c531659141344cd1fd0a4f28419497f9722a3daafe3b4186f6b6457e09190a35050565b80356001600160a01b038116811461083b57600080fd5b919050565b80356006811061083b57600080fd5b600080600080600080600060e0888a03121561086a57600080fd5b61087388610824565b965061088160208901610840565b9550604088013594506060880135935061089d60808901610824565b92506108ab60a08901610824565b915060c088013580151581146108c057600080fd5b8091505092959891949750929550565b634e487b7160e01b600052602160045260246000fd5b60208082528251828201819052600091906040908185019086840185805b8381101561099557825180518652878101516006811061093257634e487b7160e01b84526021600452602484fd5b868901528087015187870152606080820151908701526080808201516001600160a01b03169087015260a080820151610975828901826001600160a01b03169052565b505060c09081015115159086015260e09094019391860191600101610904565b509298975050505050505050565b600080604083850312156109b657600080fd5b6109bf83610824565b91506109cd60208401610840565b90509250929050565b6000602082840312156109e857600080fd5b6109f182610824565b9392505050565b634e487b7160e01b600052603260045260246000fd5b600060018201610a2e57634e487b7160e01b600052601160045260246000fd5b506001019056fea2646970667358221220a3fabcbf60086d3837f942ebc4f37b94920009c6e39593bd78f62fc409807b8964736f6c63430008130033",
  "linkReferences": {},
  "deployedLinkReferences": {}
}