{
  "_format": "hh-sol-artifact-1",
  "contractName": "NFTRegistry",
  "sourceName": "contracts/NFTRegistry.sol",
  "abi": [
    {
      "anonymous": false,
      "inputs": [
        {
          "indexed": true,
          "internalType": "address",
          "name": "collection",
          "type": "address"
        },
        {
          "indexed": true,
          "internalType": "address",
          "name": "owner",
          "type": "address"
        },
        {
          "indexed": false,
          "internalType": "uint256",
          "name": "tokenId",
          "type": "uint256"
        }
      ],
      "name": "NFTRegistered",
      "type": "event"
    },
    {
      "anonymous": false,
      "inputs": [
        {
          "indexed": true,
          "internalType": "address",
          "name": "collection",
          "type": "address"
        },
        {
          "indexed": true,
          "internalType": "address",
          "name": "from",
          "type": "address"
        },
        {
          "indexed": true,
          "internalType": "address",
          "name": "to",
          "type": "address"
        },
        {
          "indexed": false,
          "internalType": "uint256",
          "name": "tokenId",
          "type": "uint256"
        }
      ],
      "name": "NFTTransferred",
      "type": "event"
    },
    {
      "anonymous": false,
      "inputs": [
        {
          "indexed": true,
          "internalType": "address",
          "name": "previousOwner",
          "type": "address"
        },
        {
          "indexed": true,
          "internalType": "address",
          "name": "newOwner",
          "type": "address"
        }
      ],
      "name": "OwnershipTransferred",
      "type": "event"
    },
    {
      "inputs": [],
      "name": "getAllNFTs",
      "outputs": [
        {
          "internalType": "uint256[]",
          "name": "",
          "type": "uint256[]"
        }
      ],
      "stateMutability": "view",
      "type": "function"
    },
    {
      "inputs": [
        {
          "internalType": "address",
          "name": "user",
          "type": "address"
        }
      ],
      "name": "getUserNFTs",
      "outputs": [
        {
          "internalType": "uint256[]",
          "name": "",
          "type": "uint256[]"
        }
      ],
      "stateMutability": "view",
      "type": "function"
    },
    {
      "inputs": [],
      "name": "owner",
      "outputs": [
        {
          "internalType": "address",
          "name": "",
          "type": "address"
        }
      ],
      "stateMutability": "view",
      "type": "function"
    },
    {
      "inputs": [
        {
          "internalType": "address",
          "name": "collection",
          "type": "address"
        },
        {
          "internalType": "address",
          "name": "owner",
          "type": "address"
        },
        {
          "internalType": "uint256",
          "name": "tokenId",
          "type": "uint256"
        }
      ],
      "name": "registerNFT",
      "outputs": [],
      "stateMutability": "nonpayable",
      "type": "function"
    },
    {
      "inputs": [],
      "name": "renounceOwnership",
      "outputs": [],
      "stateMutability": "nonpayable",
      "type": "function"
    },
    {
      "inputs": [
        {
          "internalType": "address",
          "name": "collection",
          "type": "address"
        },
        {
          "internalType": "address",
          "name": "from",
          "type": "address"
        },
        {
          "internalType": "address",
          "name": "to",
          "type": "address"
        },
        {
          "internalType": "uint256",
          "name": "tokenId",
          "type": "uint256"
        }
      ],
      "name": "transferNFT",
      "outputs": [],
      "stateMutability": "nonpayable",
      "type": "function"
    },
    {
      "inputs": [
        {
          "internalType": "address",
          "name": "newOwner",
          "type": "address"
        }
      ],
      "name": "transferOwnership",
      "outputs": [],
      "stateMutability": "nonpayable",
      "type": "function"
    }
  ],
  "bytecode": "0x608060405234801561001057600080fd5b5061001a3361001f565b61006f565b600080546001600160a01b038381166001600160a01b0319831681178455604051919092169283917f8be0079c531659141344cd1fd0a4f28419497f9722a3daafe3b4186f6b6457e09190a35050565b610b1f8061007e6000396000f3fe608060405234801561001057600080fd5b506004361061007d5760003560e01c80638da5cb5b1161005b5780638da5cb5b146100c8578063b0306671146100e3578063e0391b09146100f6578063f2fde38b146100fe57600080fd5b8063109ed9671461008257806352de4ee514610097578063715018a6146100c0575b600080fd5b610095610090366004610948565b610111565b005b6100aa6100a5366004610989565b61044f565b6040516100b791906109ad565b60405180910390f35b61009561053e565b6000546040516001600160a01b0390911681526020016100b7565b6100956100f13660046109f1565b6105b3565b6100aa610688565b61009561010c366004610989565b610735565b336001600160a01b0384161461016e5760405162461bcd60e51b815260206004820152601e60248201527f4f6e6c79204e465420636f6e74726163742063616e207265676973746572000060448201526064015b60405180910390fd5b6001600160a01b0382166101bc5760405162461bcd60e51b8152602060048201526015602482015274496e76616c6964206f776e6572206164647265737360581b6044820152606401610165565b6001600160a01b038316600090815260026020908152604080832084845290915290205460ff16156102305760405162461bcd60e51b815260206004820152601b60248201527f546f6b656e20494420616c7265616479207265676973746572656400000000006044820152606401610165565b6001600160a01b0383166102865760405162461bcd60e51b815260206004820152601a60248201527f496e76616c696420636f6c6c656374696f6e20616464726573730000000000006044820152606401610165565b6040516331a9108f60e11b8152600481018290526001600160a01b03841690636352211e90602401602060405180830381865afa9250505080156102e7575060408051601f3d908101601f191682019092526102e491810190610a42565b60015b61032a5760405162461bcd60e51b8152602060048201526014602482015273151bdad95b88191bd95cc81b9bdd08195e1a5cdd60621b6044820152606401610165565b826001600160a01b0316816001600160a01b0316146103825760405162461bcd60e51b81526020600482015260146024820152730a8ded6cadc40deeedccae440dad2e6dac2e8c6d60631b6044820152606401610165565b6001600160a01b0383811660008181526001602081815260408084208054808501825590855282852001889055948916808452600282528584208885528252858420805460ff1916841790556003805493840190557fc2575a0e9e593c00f959f8c92f12db2869c3395a3b0502d05e2516446f71f85b909201879055600481529184902080546001600160a01b0319168217905592518581529192917f97f7d2ccd7803149f5326ec262f45f6bf56ae22e48714fc160b34b7ec1bbaf76910160405180910390a350505050565b6001600160a01b0381166000908152600160205260408120546060919067ffffffffffffffff81111561048457610484610a5f565b6040519080825280602002602001820160405280156104ad578160200160208202803683370190505b50905060005b6001600160a01b038416600090815260016020526040902054811015610537576001600160a01b03841660009081526001602052604090208054829081106104fd576104fd610a75565b906000526020600020015482828151811061051a5761051a610a75565b60209081029190910101528061052f81610aa1565b9150506104b3565b5092915050565b336105516000546001600160a01b031690565b6001600160a01b0316146105a75760405162461bcd60e51b815260206004820181905260248201527f4f776e61626c653a2063616c6c6572206973206e6f7420746865206f776e65726044820152606401610165565b6105b1600061080f565b565b336001600160a01b0385161461060b5760405162461bcd60e51b815260206004820152601e60248201527f4f6e6c79204e465420636f6e74726163742063616e207472616e7366657200006044820152606401610165565b610615838261085f565b6001600160a01b03808316600081815260016020818152604080842080549384018155845292200184905551909185811691908716907f92df3dd393e41cdc727bf55aa0efa6c541f13a2c76b2aa5404ac876be66dd4989061067a9086815260200190565b60405180910390a450505050565b60035460609060009067ffffffffffffffff8111156106a9576106a9610a5f565b6040519080825280602002602001820160405280156106d2578160200160208202803683370190505b50905060005b60035481101561072f57600381815481106106f5576106f5610a75565b906000526020600020015482828151811061071257610712610a75565b60209081029190910101528061072781610aa1565b9150506106d8565b50919050565b336107486000546001600160a01b031690565b6001600160a01b03161461079e5760405162461bcd60e51b815260206004820181905260248201527f4f776e61626c653a2063616c6c6572206973206e6f7420746865206f776e65726044820152606401610165565b6001600160a01b0381166108035760405162461bcd60e51b815260206004820152602660248201527f4f776e61626c653a206e6577206f776e657220697320746865207a65726f206160448201526564647265737360d01b6064820152608401610165565b61080c8161080f565b50565b600080546001600160a01b038381166001600160a01b0319831681178455604051919092169283917f8be0079c531659141344cd1fd0a4f28419497f9722a3daafe3b4186f6b6457e09190a35050565b6001600160a01b0382166000908152600160205260408120905b815481101561092d578282828154811061089557610895610a75565b90600052602060002001540361091b57815482906108b590600190610aba565b815481106108c5576108c5610a75565b90600052602060002001548282815481106108e2576108e2610a75565b90600052602060002001819055508180548061090057610900610ad3565b6001900381819060005260206000200160009055905561092d565b8061092581610aa1565b915050610879565b50505050565b6001600160a01b038116811461080c57600080fd5b60008060006060848603121561095d57600080fd5b833561096881610933565b9250602084013561097881610933565b929592945050506040919091013590565b60006020828403121561099b57600080fd5b81356109a681610933565b9392505050565b6020808252825182820181905260009190848201906040850190845b818110156109e5578351835292840192918401916001016109c9565b50909695505050505050565b60008060008060808587031215610a0757600080fd5b8435610a1281610933565b93506020850135610a2281610933565b92506040850135610a3281610933565b9396929550929360600135925050565b600060208284031215610a5457600080fd5b81516109a681610933565b634e487b7160e01b600052604160045260246000fd5b634e487b7160e01b600052603260045260246000fd5b634e487b7160e01b600052601160045260246000fd5b600060018201610ab357610ab3610a8b565b5060010190565b81810381811115610acd57610acd610a8b565b92915050565b634e487b7160e01b600052603160045260246000fdfea2646970667358221220db90db530f6fd6888b0895df5dad13525b3173bf1099c10a9e69a6c7acb4907b64736f6c63430008130033",
  "linkReferences": {},
  "deployedLinkReferences": {}
}