{
  "_format": "hh-sol-artifact-1",
  "contractName": "NFTAuctionRegistry",
  "sourceName": "contracts/NFTAuctionRegistry.sol",
  "abi": [
    {
      "anonymous": false,
      "inputs": [
        {
          "indexed": true,
          "internalType": "uint256",
          "name": "tokenId",
          "type": "uint256"
        }
      ],
      "name": "AuctionDeactivated",
      "type": "event"
    },
    {
      "anonymous": false,
      "inputs": [
        {
          "indexed": true,
          "internalType": "uint256",
          "name": "tokenId",
          "type": "uint256"
        },
        {
          "indexed": true,
          "internalType": "address",
          "name": "seller",
          "type": "address"
        }
      ],
      "name": "AuctionRegistered",
      "type": "event"
    },
    {
      "anonymous": false,
      "inputs": [
        {
          "indexed": true,
          "internalType": "uint256",
          "name": "tokenId",
          "type": "uint256"
        },
        {
          "indexed": true,
          "internalType": "address",
          "name": "bidder",
          "type": "address"
        },
        {
          "indexed": false,
          "internalType": "uint256",
          "name": "amount",
          "type": "uint256"
        }
      ],
      "name": "AuctionUpdated",
      "type": "event"
    },
    {
      "anonymous": false,
      "inputs": [
        {
          "indexed": true,
          "internalType": "address",
          "name": "previousOwner",
          "type": "address"
        },
        {
          "indexed": true,
          "internalType": "address",
          "name": "newOwner",
          "type": "address"
        }
      ],
      "name": "OwnershipTransferred",
      "type": "event"
    },
    {
      "inputs": [
        {
          "internalType": "uint256",
          "name": "tokenId",
          "type": "uint256"
        }
      ],
      "name": "deactivateAuction",
      "outputs": [],
      "stateMutability": "nonpayable",
      "type": "function"
    },
    {
      "inputs": [],
      "name": "getAllActiveAuctions",
      "outputs": [
        {
          "components": [
            {
              "internalType": "address",
              "name": "seller",
              "type": "address"
            },
            {
              "internalType": "uint256",
              "name": "tokenId",
              "type": "uint256"
            },
            {
              "internalType": "uint256",
              "name": "startingPrice",
              "type": "uint256"
            },
            {
              "internalType": "uint256",
              "name": "duration",
              "type": "uint256"
            },
            {
              "internalType": "uint256",
              "name": "startTime",
              "type": "uint256"
            },
            {
              "internalType": "bool",
              "name": "active",
              "type": "bool"
            },
            {
              "internalType": "address",
              "name": "highestBidder",
              "type": "address"
            },
            {
              "internalType": "uint256",
              "name": "highestBid",
              "type": "uint256"
            }
          ],
          "internalType": "struct InterfaceNFTAuction.Auction[]",
          "name": "",
          "type": "tuple[]"
        }
      ],
      "stateMutability": "view",
      "type": "function"
    },
    {
      "inputs": [
        {
          "internalType": "uint256",
          "name": "tokenId",
          "type": "uint256"
        }
      ],
      "name": "getAuction",
      "outputs": [
        {
          "components": [
            {
              "internalType": "address",
              "name": "seller",
              "type": "address"
            },
            {
              "internalType": "uint256",
              "name": "tokenId",
              "type": "uint256"
            },
            {
              "internalType": "uint256",
              "name": "startingPrice",
              "type": "uint256"
            },
            {
              "internalType": "uint256",
              "name": "duration",
              "type": "uint256"
            },
            {
              "internalType": "uint256",
              "name": "startTime",
              "type": "uint256"
            },
            {
              "internalType": "bool",
              "name": "active",
              "type": "bool"
            },
            {
              "internalType": "address",
              "name": "highestBidder",
              "type": "address"
            },
            {
              "internalType": "uint256",
              "name": "highestBid",
              "type": "uint256"
            }
          ],
          "internalType": "struct InterfaceNFTAuction.Auction",
          "name": "",
          "type": "tuple"
        }
      ],
      "stateMutability": "view",
      "type": "function"
    },
    {
      "inputs": [
        {
          "internalType": "address",
          "name": "user",
          "type": "address"
        }
      ],
      "name": "getUserAuctions",
      "outputs": [
        {
          "components": [
            {
              "internalType": "address",
              "name": "seller",
              "type": "address"
            },
            {
              "internalType": "uint256",
              "name": "tokenId",
              "type": "uint256"
            },
            {
              "internalType": "uint256",
              "name": "startingPrice",
              "type": "uint256"
            },
            {
              "internalType": "uint256",
              "name": "duration",
              "type": "uint256"
            },
            {
              "internalType": "uint256",
              "name": "startTime",
              "type": "uint256"
            },
            {
              "internalType": "bool",
              "name": "active",
              "type": "bool"
            },
            {
              "internalType": "address",
              "name": "highestBidder",
              "type": "address"
            },
            {
              "internalType": "uint256",
              "name": "highestBid",
              "type": "uint256"
            }
          ],
          "internalType": "struct InterfaceNFTAuction.Auction[]",
          "name": "",
          "type": "tuple[]"
        }
      ],
      "stateMutability": "view",
      "type": "function"
    },
    {
      "inputs": [],
      "name": "owner",
      "outputs": [
        {
          "internalType": "address",
          "name": "",
          "type": "address"
        }
      ],
      "stateMutability": "view",
      "type": "function"
    },
    {
      "inputs": [
        {
          "internalType": "uint256",
          "name": "tokenId",
          "type": "uint256"
        },
        {
          "internalType": "address",
          "name": "seller",
          "type": "address"
        },
        {
          "internalType": "uint256",
          "name": "startingPrice",
          "type": "uint256"
        },
        {
          "internalType": "uint256",
          "name": "duration",
          "type": "uint256"
        }
      ],
      "name": "registerAuction",
      "outputs": [],
      "stateMutability": "nonpayable",
      "type": "function"
    },
    {
      "inputs": [],
      "name": "renounceOwnership",
      "outputs": [],
      "stateMutability": "nonpayable",
      "type": "function"
    },
    {
      "inputs": [
        {
          "internalType": "address",
          "name": "newOwner",
          "type": "address"
        }
      ],
      "name": "transferOwnership",
      "outputs": [],
      "stateMutability": "nonpayable",
      "type": "function"
    },
    {
      "inputs": [
        {
          "internalType": "uint256",
          "name": "tokenId",
          "type": "uint256"
        },
        {
          "internalType": "address",
          "name": "bidder",
          "type": "address"
        },
        {
          "internalType": "uint256",
          "name": "bidAmount",
          "type": "uint256"
        }
      ],
      "name": "updateAuctionBid",
      "outputs": [],
      "stateMutability": "nonpayable",
      "type": "function"
    }
  ],
  "bytecode": "0x608060405234801561001057600080fd5b5061001a3361001f565b61006f565b600080546001600160a01b038381166001600160a01b0319831681178455604051919092169283917f8be0079c531659141344cd1fd0a4f28419497f9722a3daafe3b4186f6b6457e09190a35050565b61107f8061007e6000396000f3fe608060405234801561001057600080fd5b50600436106100935760003560e01c80638da5cb5b116100665780638da5cb5b146100f3578063a592d5ca1461010e578063cd267f1114610121578063f2fde38b14610134578063ff3ad0b41461014757600080fd5b80632dee466d14610098578063715018a6146100b657806378bd7935146100c05780638cbc6657146100e0575b600080fd5b6100a061015a565b6040516100ad9190610e58565b60405180910390f35b6100be6103d9565b005b6100d36100ce366004610ea7565b610453565b6040516100ad9190610ec0565b6100be6100ee366004610ef1565b6104da565b6000546040516001600160a01b0390911681526020016100ad565b6100be61011c366004610ea7565b6105d3565b6100be61012f366004610f26565b6106fc565b6100be610142366004610f61565b610946565b6100a0610155366004610f61565b610a20565b60606000805b600354811015610255576000600160006003848154811061018357610183610f83565b6000918252602080832090910154835282810193909352604091820190208151610100808201845282546001600160a01b0390811683526001840154958301959095526002830154938201939093526003820154606082015260048201546080820152600582015460ff811615801560a084018190529490910490941660c082015260069091015460e082015292509061022f57508060600151816080015161022c9190610faf565b42105b15610242578261023e81610fc2565b9350505b508061024d81610fc2565b915050610160565b5060008167ffffffffffffffff81111561027157610271610fdb565b6040519080825280602002602001820160405280156102aa57816020015b610297610da3565b81526020019060019003908161028f5790505b5090506000805b600354811080156102c157508382105b156103d057600060016000600384815481106102df576102df610f83565b6000918252602080832090910154835282810193909352604091820190208151610100808201845282546001600160a01b0390811683526001840154958301959095526002830154938201939093526003820154606082015260048201546080820152600582015460ff811615801560a084018190529490910490941660c082015260069091015460e082015292509061038b5750806060015181608001516103889190610faf565b42105b156103bd57808484815181106103a3576103a3610f83565b602002602001018190525082806103b990610fc2565b9350505b50806103c881610fc2565b9150506102b1565b50909392505050565b336103ec6000546001600160a01b031690565b6001600160a01b0316146104475760405162461bcd60e51b815260206004820181905260248201527f4f776e61626c653a2063616c6c6572206973206e6f7420746865206f776e657260448201526064015b60405180910390fd5b6104516000610bc3565b565b61045b610da3565b506000908152600160208181526040928390208351610100808201865282546001600160a01b03908116835294830154938201939093526002820154948101949094526003810154606085015260048101546080850152600581015460ff8116151560a08601529190910490911660c08301526006015460e082015290565b6000546001600160a01b031633146105045760405162461bcd60e51b815260040161043e90610ff1565b60008381526001602052604090206005015460ff1661055a5760405162461bcd60e51b815260206004820152601260248201527141756374696f6e206e6f742061637469766560701b604482015260640161043e565b600083815260016020908152604091829020600581018054610100600160a81b0319166101006001600160a01b038816908102919091179091556006909101849055915183815285917f8fcee9f36dda9c34a9da94f71906879c0507d815c8ceb39972b683e10c00e96a910160405180910390a3505050565b6000546001600160a01b031633146105fd5760405162461bcd60e51b815260040161043e90610ff1565b60008181526001602052604090206005015460ff166106535760405162461bcd60e51b815260206004820152601260248201527141756374696f6e206e6f742061637469766560701b604482015260640161043e565b6000818152600160205260409020546001600160a01b031661067482610c13565b61067e8282610ccf565b600082815260016020819052604080832080546001600160a01b03191681559182018390556002820183905560038201839055600482018390556005820180546001600160a81b031916905560069091018290555183917f7dc49f4afd64933c164e1ade53d462408a8d1e08a53c8fcea0d9428193efdd4491a25050565b6000546001600160a01b031633146107265760405162461bcd60e51b815260040161043e90610ff1565b60008481526001602052604090206005015460ff16156107815760405162461bcd60e51b815260206004820152601660248201527541756374696f6e20616c72656164792065786973747360501b604482015260640161043e565b604051806101000160405280846001600160a01b0316815260200185815260200183815260200182815260200142815260200160011515815260200160006001600160a01b0316815260200160008152506001600086815260200190815260200160002060008201518160000160006101000a8154816001600160a01b0302191690836001600160a01b031602179055506020820151816001015560408201518160020155606082015181600301556080820151816004015560a08201518160050160006101000a81548160ff02191690831515021790555060c08201518160050160016101000a8154816001600160a01b0302191690836001600160a01b0316021790555060e0820151816006015590505060026000846001600160a01b03166001600160a01b031681526020019081526020016000208490806001815401808255809150506001900390600052602060002001600090919091909150556003849080600181540180825580915050600190039060005260206000200160009091909190915055826001600160a01b0316847fae1421038a8c57acb7218ca10e4d286252948b64eaf588f6dd973d1f1179d4a560405160405180910390a350505050565b336109596000546001600160a01b031690565b6001600160a01b0316146109af5760405162461bcd60e51b815260206004820181905260248201527f4f776e61626c653a2063616c6c6572206973206e6f7420746865206f776e6572604482015260640161043e565b6001600160a01b038116610a145760405162461bcd60e51b815260206004820152602660248201527f4f776e61626c653a206e6577206f776e657220697320746865207a65726f206160448201526564647265737360d01b606482015260840161043e565b610a1d81610bc3565b50565b6001600160a01b0381166000908152600260209081526040808320805482518185028101850190935280835260609493830182828015610a7f57602002820191906000526020600020905b815481526020019060010190808311610a6b575b505050505090506000815167ffffffffffffffff811115610aa257610aa2610fdb565b604051908082528060200260200182016040528015610adb57816020015b610ac8610da3565b815260200190600190039081610ac05790505b50905060005b8251811015610bbb5760016000848381518110610b0057610b00610f83565b60209081029190910181015182528181019290925260409081016000208151610100808201845282546001600160a01b0390811683526001840154958301959095526002830154938201939093526003820154606082015260048201546080820152600582015460ff8116151560a08301529290920490921660c082015260069091015460e08201528251839083908110610b9d57610b9d610f83565b60200260200101819052508080610bb390610fc2565b915050610ae1565b509392505050565b600080546001600160a01b038381166001600160a01b0319831681178455604051919092169283917f8be0079c531659141344cd1fd0a4f28419497f9722a3daafe3b4186f6b6457e09190a35050565b60005b600354811015610ccb578160038281548110610c3457610c34610f83565b906000526020600020015403610cb95760038054610c5490600190611020565b81548110610c6457610c64610f83565b906000526020600020015460038281548110610c8257610c82610f83565b6000918252602090912001556003805480610c9f57610c9f611033565b600190038181906000526020600020016000905590555050565b80610cc381610fc2565b915050610c16565b5050565b6001600160a01b0381166000908152600260205260408120905b8154811015610d9d5783828281548110610d0557610d05610f83565b906000526020600020015403610d8b5781548290610d2590600190611020565b81548110610d3557610d35610f83565b9060005260206000200154828281548110610d5257610d52610f83565b906000526020600020018190555081805480610d7057610d70611033565b60019003818190600052602060002001600090559055610d9d565b80610d9581610fc2565b915050610ce9565b50505050565b60405180610100016040528060006001600160a01b031681526020016000815260200160008152602001600081526020016000815260200160001515815260200160006001600160a01b03168152602001600081525090565b60018060a01b038082511683526020820151602084015260408201516040840152606082015160608401526080820151608084015260a0820151151560a08401528060c08301511660c08401525060e081015160e08301525050565b6020808252825182820181905260009190848201906040850190845b81811015610e9b57610e87838551610dfc565b928401926101009290920191600101610e74565b50909695505050505050565b600060208284031215610eb957600080fd5b5035919050565b6101008101610ecf8284610dfc565b92915050565b80356001600160a01b0381168114610eec57600080fd5b919050565b600080600060608486031215610f0657600080fd5b83359250610f1660208501610ed5565b9150604084013590509250925092565b60008060008060808587031215610f3c57600080fd5b84359350610f4c60208601610ed5565b93969395505050506040820135916060013590565b600060208284031215610f7357600080fd5b610f7c82610ed5565b9392505050565b634e487b7160e01b600052603260045260246000fd5b634e487b7160e01b600052601160045260246000fd5b80820180821115610ecf57610ecf610f99565b600060018201610fd457610fd4610f99565b5060010190565b634e487b7160e01b600052604160045260246000fd5b60208082526015908201527413db9b1e48185d58dd1a5bdb8818dbdb9d1c9858dd605a1b604082015260600190565b81810381811115610ecf57610ecf610f99565b634e487b7160e01b600052603160045260246000fdfea2646970667358221220b0f89068874ab06310bb90fca00b668fb1d455f0cb5b47f6704f7ddaa3f4b2ef64736f6c63430008130033",
  "linkReferences": {},
  "deployedLinkReferences": {}
}