{
  "_format": "hh-sol-artifact-1",
  "contractName": "NFTAuction",
  "sourceName": "contracts/NFTAuction.sol",
  "abi": [
    {
      "inputs": [
        {
          "internalType": "address",
          "name": "nftContractAddress",
          "type": "address"
        },
        {
          "internalType": "uint256",
          "name": "_creationFee",
          "type": "uint256"
        },
        {
          "internalType": "uint256",
          "name": "_bidFee",
          "type": "uint256"
        },
        {
          "internalType": "uint256",
          "name": "_finalizePercentage",
          "type": "uint256"
        },
        {
          "internalType": "uint256",
          "name": "_minDuration",
          "type": "uint256"
        },
        {
          "internalType": "uint256",
          "name": "_maxDuration",
          "type": "uint256"
        },
        {
          "internalType": "address",
          "name": "userRecordsAddress",
          "type": "address"
        },
        {
          "internalType": "address",
          "name": "registryAddress",
          "type": "address"
        }
      ],
      "stateMutability": "nonpayable",
      "type": "constructor"
    },
    {
      "anonymous": false,
      "inputs": [
        {
          "indexed": true,
          "internalType": "uint256",
          "name": "tokenId",
          "type": "uint256"
        }
      ],
      "name": "AuctionCancelled",
      "type": "event"
    },
    {
      "anonymous": false,
      "inputs": [
        {
          "indexed": true,
          "internalType": "uint256",
          "name": "tokenId",
          "type": "uint256"
        },
        {
          "indexed": true,
          "internalType": "address",
          "name": "seller",
          "type": "address"
        },
        {
          "indexed": false,
          "internalType": "uint256",
          "name": "startingPrice",
          "type": "uint256"
        },
        {
          "indexed": false,
          "internalType": "uint256",
          "name": "duration",
          "type": "uint256"
        }
      ],
      "name": "AuctionCreated",
      "type": "event"
    },
    {
      "anonymous": false,
      "inputs": [
        {
          "indexed": true,
          "internalType": "uint256",
          "name": "tokenId",
          "type": "uint256"
        },
        {
          "indexed": true,
          "internalType": "address",
          "name": "winner",
          "type": "address"
        },
        {
          "indexed": false,
          "internalType": "uint256",
          "name": "amount",
          "type": "uint256"
        }
      ],
      "name": "AuctionEnded",
      "type": "event"
    },
    {
      "anonymous": false,
      "inputs": [
        {
          "indexed": false,
          "internalType": "uint256",
          "name": "tokenId",
          "type": "uint256"
        },
        {
          "indexed": false,
          "internalType": "uint256",
          "name": "newDuration",
          "type": "uint256"
        }
      ],
      "name": "AuctionParametersUpdated",
      "type": "event"
    },
    {
      "anonymous": false,
      "inputs": [
        {
          "indexed": false,
          "internalType": "uint256",
          "name": "newFee",
          "type": "uint256"
        }
      ],
      "name": "BidFeeUpdated",
      "type": "event"
    },
    {
      "anonymous": false,
      "inputs": [
        {
          "indexed": true,
          "internalType": "uint256",
          "name": "tokenId",
          "type": "uint256"
        },
        {
          "indexed": true,
          "internalType": "address",
          "name": "bidder",
          "type": "address"
        },
        {
          "indexed": false,
          "internalType": "uint256",
          "name": "amount",
          "type": "uint256"
        }
      ],
      "name": "BidPlaced",
      "type": "event"
    },
    {
      "anonymous": false,
      "inputs": [
        {
          "indexed": true,
          "internalType": "address",
          "name": "collection",
          "type": "address"
        },
        {
          "indexed": false,
          "internalType": "bool",
          "name": "status",
          "type": "bool"
        }
      ],
      "name": "CollectionWhitelistUpdated",
      "type": "event"
    },
    {
      "anonymous": false,
      "inputs": [
        {
          "indexed": false,
          "internalType": "uint256",
          "name": "newFee",
          "type": "uint256"
        }
      ],
      "name": "CreationFeeUpdated",
      "type": "event"
    },
    {
      "anonymous": false,
      "inputs": [
        {
          "indexed": false,
          "internalType": "uint256",
          "name": "newPercentage",
          "type": "uint256"
        }
      ],
      "name": "FinalizePercentageUpdated",
      "type": "event"
    },
    {
      "anonymous": false,
      "inputs": [
        {
          "indexed": false,
          "internalType": "uint256",
          "name": "newIncrement",
          "type": "uint256"
        }
      ],
      "name": "MinBidIncrementUpdated",
      "type": "event"
    },
    {
      "anonymous": false,
      "inputs": [
        {
          "indexed": true,
          "internalType": "address",
          "name": "previousOwner",
          "type": "address"
        },
        {
          "indexed": true,
          "internalType": "address",
          "name": "newOwner",
          "type": "address"
        }
      ],
      "name": "OwnershipTransferred",
      "type": "event"
    },
    {
      "anonymous": false,
      "inputs": [
        {
          "indexed": false,
          "internalType": "address",
          "name": "account",
          "type": "address"
        }
      ],
      "name": "Paused",
      "type": "event"
    },
    {
      "anonymous": false,
      "inputs": [
        {
          "indexed": false,
          "internalType": "address",
          "name": "account",
          "type": "address"
        }
      ],
      "name": "Unpaused",
      "type": "event"
    },
    {
      "inputs": [],
      "name": "bidFee",
      "outputs": [
        {
          "internalType": "uint256",
          "name": "",
          "type": "uint256"
        }
      ],
      "stateMutability": "view",
      "type": "function"
    },
    {
      "inputs": [
        {
          "internalType": "uint256",
          "name": "tokenId",
          "type": "uint256"
        }
      ],
      "name": "cancelAuction",
      "outputs": [],
      "stateMutability": "nonpayable",
      "type": "function"
    },
    {
      "inputs": [
        {
          "internalType": "uint256",
          "name": "tokenId",
          "type": "uint256"
        },
        {
          "internalType": "uint256",
          "name": "startingPrice",
          "type": "uint256"
        },
        {
          "internalType": "uint256",
          "name": "duration",
          "type": "uint256"
        }
      ],
      "name": "createAuction",
      "outputs": [],
      "stateMutability": "payable",
      "type": "function"
    },
    {
      "inputs": [],
      "name": "creationFee",
      "outputs": [
        {
          "internalType": "uint256",
          "name": "",
          "type": "uint256"
        }
      ],
      "stateMutability": "view",
      "type": "function"
    },
    {
      "inputs": [
        {
          "internalType": "uint256",
          "name": "tokenId",
          "type": "uint256"
        }
      ],
      "name": "finalizeExpiredAuction",
      "outputs": [],
      "stateMutability": "nonpayable",
      "type": "function"
    },
    {
      "inputs": [],
      "name": "finalizePercentage",
      "outputs": [
        {
          "internalType": "uint256",
          "name": "",
          "type": "uint256"
        }
      ],
      "stateMutability": "view",
      "type": "function"
    },
    {
      "inputs": [],
      "name": "getAllActiveAuctions",
      "outputs": [
        {
          "components": [
            {
              "internalType": "address",
              "name": "seller",
              "type": "address"
            },
            {
              "internalType": "uint256",
              "name": "tokenId",
              "type": "uint256"
            },
            {
              "internalType": "uint256",
              "name": "startingPrice",
              "type": "uint256"
            },
            {
              "internalType": "uint256",
              "name": "duration",
              "type": "uint256"
            },
            {
              "internalType": "uint256",
              "name": "startTime",
              "type": "uint256"
            },
            {
              "internalType": "bool",
              "name": "active",
              "type": "bool"
            },
            {
              "internalType": "address",
              "name": "highestBidder",
              "type": "address"
            },
            {
              "internalType": "uint256",
              "name": "highestBid",
              "type": "uint256"
            }
          ],
          "internalType": "struct InterfaceNFTAuction.Auction[]",
          "name": "",
          "type": "tuple[]"
        }
      ],
      "stateMutability": "view",
      "type": "function"
    },
    {
      "inputs": [
        {
          "internalType": "uint256",
          "name": "tokenId",
          "type": "uint256"
        }
      ],
      "name": "getAuction",
      "outputs": [
        {
          "components": [
            {
              "internalType": "address",
              "name": "seller",
              "type": "address"
            },
            {
              "internalType": "uint256",
              "name": "tokenId",
              "type": "uint256"
            },
            {
              "internalType": "uint256",
              "name": "startingPrice",
              "type": "uint256"
            },
            {
              "internalType": "uint256",
              "name": "duration",
              "type": "uint256"
            },
            {
              "internalType": "uint256",
              "name": "startTime",
              "type": "uint256"
            },
            {
              "internalType": "bool",
              "name": "active",
              "type": "bool"
            },
            {
              "internalType": "address",
              "name": "highestBidder",
              "type": "address"
            },
            {
              "internalType": "uint256",
              "name": "highestBid",
              "type": "uint256"
            }
          ],
          "internalType": "struct InterfaceNFTAuction.Auction",
          "name": "",
          "type": "tuple"
        }
      ],
      "stateMutability": "view",
      "type": "function"
    },
    {
      "inputs": [
        {
          "internalType": "address",
          "name": "user",
          "type": "address"
        }
      ],
      "name": "getUserAuctions",
      "outputs": [
        {
          "components": [
            {
              "internalType": "address",
              "name": "seller",
              "type": "address"
            },
            {
              "internalType": "uint256",
              "name": "tokenId",
              "type": "uint256"
            },
            {
              "internalType": "uint256",
              "name": "startingPrice",
              "type": "uint256"
            },
            {
              "internalType": "uint256",
              "name": "duration",
              "type": "uint256"
            },
            {
              "internalType": "uint256",
              "name": "startTime",
              "type": "uint256"
            },
            {
              "internalType": "bool",
              "name": "active",
              "type": "bool"
            },
            {
              "internalType": "address",
              "name": "highestBidder",
              "type": "address"
            },
            {
              "internalType": "uint256",
              "name": "highestBid",
              "type": "uint256"
            }
          ],
          "internalType": "struct InterfaceNFTAuction.Auction[]",
          "name": "",
          "type": "tuple[]"
        }
      ],
      "stateMutability": "view",
      "type": "function"
    },
    {
      "inputs": [],
      "name": "maxAuctionDuration",
      "outputs": [
        {
          "internalType": "uint256",
          "name": "",
          "type": "uint256"
        }
      ],
      "stateMutability": "view",
      "type": "function"
    },
    {
      "inputs": [],
      "name": "minAuctionDuration",
      "outputs": [
        {
          "internalType": "uint256",
          "name": "",
          "type": "uint256"
        }
      ],
      "stateMutability": "view",
      "type": "function"
    },
    {
      "inputs": [],
      "name": "minBidIncrement",
      "outputs": [
        {
          "internalType": "uint256",
          "name": "",
          "type": "uint256"
        }
      ],
      "stateMutability": "view",
      "type": "function"
    },
    {
      "inputs": [],
      "name": "owner",
      "outputs": [
        {
          "internalType": "address",
          "name": "",
          "type": "address"
        }
      ],
      "stateMutability": "view",
      "type": "function"
    },
    {
      "inputs": [],
      "name": "pause",
      "outputs": [],
      "stateMutability": "nonpayable",
      "type": "function"
    },
    {
      "inputs": [],
      "name": "paused",
      "outputs": [
        {
          "internalType": "bool",
          "name": "",
          "type": "bool"
        }
      ],
      "stateMutability": "view",
      "type": "function"
    },
    {
      "inputs": [
        {
          "internalType": "uint256",
          "name": "tokenId",
          "type": "uint256"
        }
      ],
      "name": "placeBid",
      "outputs": [],
      "stateMutability": "payable",
      "type": "function"
    },
    {
      "inputs": [],
      "name": "renounceOwnership",
      "outputs": [],
      "stateMutability": "nonpayable",
      "type": "function"
    },
    {
      "inputs": [
        {
          "internalType": "address",
          "name": "newOwner",
          "type": "address"
        }
      ],
      "name": "transferOwnership",
      "outputs": [],
      "stateMutability": "nonpayable",
      "type": "function"
    },
    {
      "inputs": [],
      "name": "unpause",
      "outputs": [],
      "stateMutability": "nonpayable",
      "type": "function"
    }
  ],
  "bytecode": "0x60806040526101f46009553480156200001757600080fd5b5060405162001d9838038062001d988339810160408190526200003a916200021d565b6200004533620001b0565b6000805460ff60a01b191690556001600160a01b038816620000ae5760405162461bcd60e51b815260206004820152601c60248201527f496e76616c6964204e465420636f6e747261637420616464726573730000000060448201526064015b60405180910390fd5b600084118015620000be57508383115b6200010c5760405162461bcd60e51b815260206004820152601b60248201527f496e76616c6964206475726174696f6e20706172616d657465727300000000006044820152606401620000a5565b612710851115620001555760405162461bcd60e51b8152602060048201526012602482015271496e76616c69642070657263656e7461676560701b6044820152606401620000a5565b600180546001600160a01b03998a166001600160a01b03199182161790915560038054928a16928216929092179091556004969096556005949094556006929092556007556008556002805491909316911617905562000298565b600080546001600160a01b038381166001600160a01b0319831681178455604051919092169283917f8be0079c531659141344cd1fd0a4f28419497f9722a3daafe3b4186f6b6457e09190a35050565b80516001600160a01b03811681146200021857600080fd5b919050565b600080600080600080600080610100898b0312156200023b57600080fd5b620002468962000200565b97506020890151965060408901519550606089015194506080890151935060a089015192506200027960c08a0162000200565b91506200028960e08a0162000200565b90509295985092959890939650565b611af080620002a86000396000f3fe6080604052600436106101145760003560e01c80638456cb59116100a0578063cda4beef11610064578063cda4beef146102bd578063dce0b4e4146102d0578063e14a2115146102e6578063f2fde38b146102fc578063ff3ad0b41461031c57600080fd5b80638456cb591461022d5780638da5cb5b1461024257806396b5a7551461026a5780639979ef451461028a578063a8e20c6d1461029d57600080fd5b806354134876116100e75780635413487614610195578063565b75d4146101ab5780635c975abb146101c1578063715018a6146101eb57806378bd79351461020057600080fd5b80632dee466d14610119578063335b115e146101445780633f4ba83a1461016857806348c9581e1461017f575b600080fd5b34801561012557600080fd5b5061012e61033c565b60405161013b9190611680565b60405180910390f35b34801561015057600080fd5b5061015a60095481565b60405190815260200161013b565b34801561017457600080fd5b5061017d6103b3565b005b34801561018b57600080fd5b5061015a60085481565b3480156101a157600080fd5b5061015a60075481565b3480156101b757600080fd5b5061015a60065481565b3480156101cd57600080fd5b50600054600160a01b900460ff16604051901515815260200161013b565b3480156101f757600080fd5b5061017d610488565b34801561020c57600080fd5b5061022061021b3660046116cf565b6104cd565b60405161013b91906116e8565b34801561023957600080fd5b5061017d61059d565b34801561024e57600080fd5b506000546040516001600160a01b03909116815260200161013b565b34801561027657600080fd5b5061017d6102853660046116cf565b610643565b61017d6102983660046116cf565b6108c9565b3480156102a957600080fd5b5061017d6102b83660046116cf565b610c2c565b61017d6102cb3660046116f7565b610d78565b3480156102dc57600080fd5b5061015a60045481565b3480156102f257600080fd5b5061015a60055481565b34801561030857600080fd5b5061017d610317366004611738565b6111b0565b34801561032857600080fd5b5061012e610337366004611738565b61125a565b60035460408051632dee466d60e01b815290516060926001600160a01b031691632dee466d9160048083019260009291908290030181865afa158015610386573d6000803e3d6000fd5b505050506040513d6000823e601f3d908101601f191682016040526103ae919081019061186d565b905090565b336103c66000546001600160a01b031690565b6001600160a01b0316146103f55760405162461bcd60e51b81526004016103ec90611921565b60405180910390fd5b600054600160a01b900460ff166104455760405162461bcd60e51b815260206004820152601460248201527314185d5cd8589b194e881b9bdd081c185d5cd95960621b60448201526064016103ec565b6000805460ff60a01b191690556040513381527f5db9ee0a495bf2e6ff9c91a7834c1ba4fdd244a5e8aa4e537bd38aeae4b073aa906020015b60405180910390a1565b3361049b6000546001600160a01b031690565b6001600160a01b0316146104c15760405162461bcd60e51b81526004016103ec90611921565b6104cb60006112d0565b565b61052960405180610100016040528060006001600160a01b031681526020016000815260200160008152602001600081526020016000815260200160001515815260200160006001600160a01b03168152602001600081525090565b6003546040516378bd793560e01b8152600481018490526001600160a01b03909116906378bd79359060240161010060405180830381865afa158015610573573d6000803e3d6000fd5b505050506040513d601f19601f820116820180604052508101906105979190611956565b92915050565b336105b06000546001600160a01b031690565b6001600160a01b0316146105d65760405162461bcd60e51b81526004016103ec90611921565b600054600160a01b900460ff16156106005760405162461bcd60e51b81526004016103ec90611973565b6000805460ff60a01b1916600160a01b1790556040513381527f62e78cea01bee320cd4e420270b5ea74000d11b0c9f74754ebdbfc544b05a2589060200161047e565b600054600160a01b900460ff161561066d5760405162461bcd60e51b81526004016103ec90611973565b6003546040516378bd793560e01b8152600481018390526000916001600160a01b0316906378bd79359060240161010060405180830381865afa1580156106b8573d6000803e3d6000fd5b505050506040513d601f19601f820116820180604052508101906106dc9190611956565b90508060a001516107245760405162461bcd60e51b815260206004820152601260248201527141756374696f6e206e6f742061637469766560701b60448201526064016103ec565b80516001600160a01b031633148061074657506000546001600160a01b031633145b6107835760405162461bcd60e51b815260206004820152600e60248201526d139bdd08185d5d1a1bdc9a5e995960921b60448201526064016103ec565b60e0810151156107d55760405162461bcd60e51b815260206004820152601f60248201527f43616e6e6f742063616e63656c2061756374696f6e207769746820626964730060448201526064016103ec565b60015481516040516323b872dd60e01b81526001600160a01b03909216916323b872dd9161080a91309190879060040161199d565b600060405180830381600087803b15801561082457600080fd5b505af1158015610838573d6000803e3d6000fd5b50506003546040516352c96ae560e11b8152600481018690526001600160a01b03909116925063a592d5ca9150602401600060405180830381600087803b15801561088257600080fd5b505af1158015610896573d6000803e3d6000fd5b50506040518492507f2809c7e17bf978fbc7194c0a694b638c4215e9140cacc6c38ca36010b45697df9150600090a25050565b600054600160a01b900460ff16156108f35760405162461bcd60e51b81526004016103ec90611973565b6003546040516378bd793560e01b8152600481018390526000916001600160a01b0316906378bd79359060240161010060405180830381865afa15801561093e573d6000803e3d6000fd5b505050506040513d601f19601f820116820180604052508101906109629190611956565b90508060a001516109ad5760405162461bcd60e51b815260206004820152601560248201527441756374696f6e206973206e6f742061637469766560581b60448201526064016103ec565b806060015181608001516109c191906119d7565b4210610a035760405162461bcd60e51b8152602060048201526011602482015270105d58dd1a5bdb881a185cc8195b991959607a1b60448201526064016103ec565b60008160e00151600014610a44576127106009548360e00151610a2691906119ea565b610a309190611a01565b8260e00151610a3f91906119d7565b610a4a565b81604001515b905060055481610a5a91906119d7565b341015610a9e5760405162461bcd60e51b815260206004820152601260248201527142696420616d6f756e7420746f6f206c6f7760701b60448201526064016103ec565b60c08201516001600160a01b031615610af4578160c001516001600160a01b03166108fc8360e001519081150290604051600060405180830381858888f19350505050158015610af2573d6000803e3d6000fd5b505b6003546005546001600160a01b0390911690638cbc66579085903390610b1a9034611a23565b6040516001600160e01b031960e086901b16815260048101939093526001600160a01b0390911660248301526044820152606401600060405180830381600087803b158015610b6857600080fd5b505af1158015610b7c573d6000803e3d6000fd5b5050600254604051630a221a7b60e11b81526001600160a01b03909116925063144434f69150610bbd90339060019088903490849030908590600401611a36565b600060405180830381600087803b158015610bd757600080fd5b505af1158015610beb573d6000803e3d6000fd5b50506040513481523392508591507f0e54eff26401bf69b81b26f60bd85ef47f5d85275c1d268d84f68d6897431c47906020015b60405180910390a3505050565b600054600160a01b900460ff1615610c565760405162461bcd60e51b81526004016103ec90611973565b6003546040516378bd793560e01b8152600481018390526000916001600160a01b0316906378bd79359060240161010060405180830381865afa158015610ca1573d6000803e3d6000fd5b505050506040513d601f19601f82011682018060405250810190610cc59190611956565b90508060a00151610d105760405162461bcd60e51b815260206004820152601560248201527441756374696f6e206973206e6f742061637469766560581b60448201526064016103ec565b80606001518160800151610d2491906119d7565b421015610d6b5760405162461bcd60e51b815260206004820152601560248201527441756374696f6e207374696c6c206f6e676f696e6760581b60448201526064016103ec565b610d7481611320565b5050565b600054600160a01b900460ff1615610da25760405162461bcd60e51b81526004016103ec90611973565b600454341015610df45760405162461bcd60e51b815260206004820152601960248201527f496e73756666696369656e74206372656174696f6e206665650000000000000060448201526064016103ec565b6007548110158015610e0857506008548111155b610e545760405162461bcd60e51b815260206004820152601860248201527f496e76616c69642061756374696f6e206475726174696f6e000000000000000060448201526064016103ec565b60008211610eb25760405162461bcd60e51b815260206004820152602560248201527f5374617274696e67207072696365206d75737420626520677265617465722074604482015264068616e20360dc1b60648201526084016103ec565b6001546040516331a9108f60e11b81526004810185905233916001600160a01b031690636352211e90602401602060405180830381865afa158015610efb573d6000803e3d6000fd5b505050506040513d601f19601f82011682018060405250810190610f1f9190611a9d565b6001600160a01b031614610f755760405162461bcd60e51b815260206004820152601960248201527f43616c6c6572206973206e6f7420746f6b656e206f776e65720000000000000060448201526064016103ec565b60015460405163020604bf60e21b81526004810185905230916001600160a01b03169063081812fc90602401602060405180830381865afa158015610fbe573d6000803e3d6000fd5b505050506040513d601f19601f82011682018060405250810190610fe29190611a9d565b6001600160a01b0316146110305760405162461bcd60e51b815260206004820152601560248201527410dbdb9d1c9858dd081b9bdd08185c1c1c9bdd9959605a1b60448201526064016103ec565b6001546040516323b872dd60e01b81526001600160a01b03909116906323b872dd906110649033903090889060040161199d565b600060405180830381600087803b15801561107e57600080fd5b505af1158015611092573d6000803e3d6000fd5b505060035460405163cd267f1160e01b81526004810187905233602482015260448101869052606481018590526001600160a01b03909116925063cd267f119150608401600060405180830381600087803b1580156110f057600080fd5b505af1158015611104573d6000803e3d6000fd5b505060028054604051630a221a7b60e11b81526001600160a01b03909116935063144434f692506111449133918890889084903090600190600401611a36565b600060405180830381600087803b15801561115e57600080fd5b505af1158015611172573d6000803e3d6000fd5b505060408051858152602081018590523393508692507fc9050d42180a61cb0d9ebb8ad118b62fe6eab12cf12ff752c4a0cc7da9ddf6279101610c1f565b336111c36000546001600160a01b031690565b6001600160a01b0316146111e95760405162461bcd60e51b81526004016103ec90611921565b6001600160a01b03811661124e5760405162461bcd60e51b815260206004820152602660248201527f4f776e61626c653a206e6577206f776e657220697320746865207a65726f206160448201526564647265737360d01b60648201526084016103ec565b611257816112d0565b50565b600354604051600162314bd360e21b031981526001600160a01b038381166004830152606092169063ff3ad0b490602401600060405180830381865afa1580156112a8573d6000803e3d6000fd5b505050506040513d6000823e601f3d908101601f19168201604052610597919081019061186d565b600080546001600160a01b038381166001600160a01b0319831681178455604051919092169283917f8be0079c531659141344cd1fd0a4f28419497f9722a3daafe3b4186f6b6457e09190a35050565b60c08101516001600160a01b0316156115205760006127106006548360e0015161134a91906119ea565b6113549190611a01565b90506000818360e001516113689190611a23565b60015460c085015160208601516040516323b872dd60e01b81529394506001600160a01b03909216926323b872dd926113a892309290919060040161199d565b600060405180830381600087803b1580156113c257600080fd5b505af11580156113d6573d6000803e3d6000fd5b505084516040516001600160a01b03909116925083156108fc02915083906000818181858888f19350505050158015611413573d6000803e3d6000fd5b50600080546040516001600160a01b039091169184156108fc02918591818181858888f1935050505015801561144d573d6000803e3d6000fd5b5060025460c0840151602085015160e0860151604051630a221a7b60e11b81526001600160a01b039094169363144434f69361149793909260039230908590600190600401611a36565b600060405180830381600087803b1580156114b157600080fd5b505af11580156114c5573d6000803e3d6000fd5b505050508260c001516001600160a01b031683602001517fd2aa34a4fdbbc6dff6a3e56f46e0f3ae2a31d7785ff3487aa5c95c642acea5018560e0015160405161151191815260200190565b60405180910390a350506115b8565b600154815160208301516040516323b872dd60e01b81526001600160a01b03909316926323b872dd9261155792309260040161199d565b600060405180830381600087803b15801561157157600080fd5b505af1158015611585573d6000803e3d6000fd5b5050505060208101516040517f2809c7e17bf978fbc7194c0a694b638c4215e9140cacc6c38ca36010b45697df90600090a25b60035460208201516040516352c96ae560e11b81526001600160a01b039092169163a592d5ca916115ef9160040190815260200190565b600060405180830381600087803b15801561160957600080fd5b505af115801561161d573d6000803e3d6000fd5b5050505050565b60018060a01b038082511683526020820151602084015260408201516040840152606082015160608401526080820151608084015260a0820151151560a08401528060c08301511660c08401525060e081015160e08301525050565b6020808252825182820181905260009190848201906040850190845b818110156116c3576116af838551611624565b92840192610100929092019160010161169c565b50909695505050505050565b6000602082840312156116e157600080fd5b5035919050565b61010081016105978284611624565b60008060006060848603121561170c57600080fd5b505081359360208301359350604090920135919050565b6001600160a01b038116811461125757600080fd5b60006020828403121561174a57600080fd5b813561175581611723565b9392505050565b634e487b7160e01b600052604160045260246000fd5b604051601f8201601f1916810167ffffffffffffffff8111828210171561179b5761179b61175c565b604052919050565b80516117ae81611723565b919050565b805180151581146117ae57600080fd5b60006101008083850312156117d757600080fd5b6040519081019067ffffffffffffffff821181831017156117fa576117fa61175c565b816040528092508351915061180e82611723565b8181526020840151602082015260408401516040820152606084015160608201526080840151608082015261184560a085016117b3565b60a082015261185660c085016117a3565b60c082015260e084015160e0820152505092915050565b6000602080838503121561188057600080fd5b825167ffffffffffffffff8082111561189857600080fd5b818501915085601f8301126118ac57600080fd5b8151818111156118be576118be61175c565b6118cc848260051b01611772565b818152848101925060089190911b8301840190878211156118ec57600080fd5b928401925b818410156119165761190388856117c3565b83528483019250610100840193506118f1565b979650505050505050565b6020808252818101527f4f776e61626c653a2063616c6c6572206973206e6f7420746865206f776e6572604082015260600190565b6000610100828403121561196957600080fd5b61175583836117c3565b60208082526010908201526f14185d5cd8589b194e881c185d5cd95960821b604082015260600190565b6001600160a01b039384168152919092166020820152604081019190915260600190565b634e487b7160e01b600052601160045260246000fd5b80820180821115610597576105976119c1565b8082028115828204841417610597576105976119c1565b600082611a1e57634e487b7160e01b600052601260045260246000fd5b500490565b81810381811115610597576105976119c1565b6001600160a01b03888116825260e082019060068910611a6657634e487b7160e01b600052602160045260246000fd5b886020840152876040840152866060840152808616608084015280851660a08401525082151560c083015298975050505050505050565b600060208284031215611aaf57600080fd5b81516117558161172356fea2646970667358221220e7c5b7010f99effa699cd5babda20c1742a176a0c14fea0b38711658ada5a6c964736f6c63430008130033",
  "linkReferences": {},
  "deployedLinkReferences": {}
}